:020000040800F2
:1000000000800010814B0008CD4B0008CD4B00084C
:10001000CD4B0008CD4B0008CD4B00080000000080
:10002000000000000000000000000000CD4B0008B0
:10003000CD4B000800000000CD4B0008CD4B000860
:10004000CD4B0008CD4B0008CD4B0008CD4B000830
:10005000CD4B0008CD4B0008CD4B0008CD4B000820
:10006000CD4B0008CD4B0008CD4B0008CD4B000810
:10007000CD4B0008CD4B0008CD4B0008CD4B000800
:10008000CD4B0008CD4B0008CD4B0008CD4B0008F0
:10009000CD4B0008CD4B0008CD4B0008CD4B0008E0
:1000A000CD4B0008CD4B0008CD4B0008CD4B0008D0
:1000B000CD4B0008CD4B0008CD4B0008CD4B0008C0
:1000C000CD4B0008CD4B0008CD4B0008CD4B0008B0
:1000D000CD4B0008CD4B0008CD4B0008CD4B0008A0
:1000E000CD4B0008CD4B0008CD4B0008CD4B000890
:1000F000CD4B0008CD4B0008CD4B0008CD4B000880
:10010000CD4B0008CD4B0008CD4B0008CD4B00086F
:10011000CD4B0008CD4B0008CD4B0008CD4B00085F
:10012000CD4B0008CD4B0008CD4B0008CD4B00084F
:10013000CD4B0008CD4B0008CD4B0008CD4B00083F
:10014000CD4B0008CD4B0008CD4B0008CD4B00082F
:10015000CD4B0008CD4B0008CD4B0008CD4B00081F
:10016000CD4B0008CD4B0008CD4B0008CD4B00080F
:10017000CD4B0008CD4B0008CD4B0008000000001F
:10018000CD4B0008CD4B000810B5054C237833B992
:10019000044B13B10448AFF300800123237010BD5A
:1001A000780200100000000000FA000808B5034BB8
:1001B0001BB103490348AFF3008008BD00000000F5
:1001C0007C02001000FA0008A3F5803A704700BFD7
:1001D000174B002B08BF134B9D46FFF7F5FF00217F
:1001E0008B460F461348144A121A0AF07FF90E4B39
:1001F000002B00D098470D4B002B00D098470020D3
:10020000002104000D000D48002802D00C48AFF377
:10021000008009F033FF2000290004F07BFC09F086
:10022000A7FA00BF00000800000000000000000066
:100230000080001078020010CC5A0010000000006E
:100240000000000038B590F90030013304460D4637
:1002500004D106490648352207F0BAFF636815B194
:10026000E268136038BD2269FBE700BF6CD6000866
:10027000B1D6000890F90030013310B5044604D11E
:10028000064907483F2207F0A3FFA3681A6863687E
:100290001A4214BF0120002010BD00BF6CD6000818
:1002A000B1D6000838B5142204460D4600210AF0E4
:1002B0001DF92046294608F00DF8204638BD0000FB
:1002C00070B51D46044607F03DFD294604F10C00BB
:1002D000FFF7E8FF9DF9101004F12000FFF7E2FF9F
:1002E00004F148059DF9141004F13400FFF7DAFF1A
:1002F0001422002128460AF0F9F804F15C069DF961
:100300001810284607F0F8FF1422002130460AF0A2
:10031000EDF89DF91C10304607F0EEFFBDF82420E3
:100320009DF82010002304F1700007F01BFA094922
:10033000094807F037FF30460121FFF783FF2846C1
:100340000021FFF77FFF2046044907F00DFD2046FE
:1003500070BD00BFC9D60008DC500010A0860100A7
:10036000704701214830FFF76DBF00214830FFF78B
:1003700069BF2DE9F843044600F10C063046FFF74B
:1003800079FF05460028F9D13046FFF773FF0028B2
:10039000FAD004F1340904F120073046FFF76AFF70
:1003A000C0B104F170084846FFF764FF0028F4D09C
:1003B0003846FFF75FFF0028FAD0404607F0E8F91B
:1003C00004F18403585501353846FFF753FF0028E0
:1003D000FAD1E8E7BDE8F8831FB500238DF80C10CB
:1003E0008DF80D20009303AA0223602107F0D4FCAE
:1003F000022008F08FF805B05DF804FB38B505461B
:100400008C1C14F8021C14F8012C01EA0203FF2BC7
:1004100004F1020403D02846FFF7DEFFF1E738BD00
:1004200038B501220446FF211D4DFFF7D5FF80227C
:1004300012212046FFF7D0FF642008F06BF819491D
:10044000284607F0AFFE20461749FFF7D7FF1749A8
:10045000284607F0A7FE20461549FFF7CFFF1549AC
:10046000284607F09FFE20461349FFF7C7FF2046A6
:100470000122FF21FFF7B0FF002220461521FFF7E0
:10048000ABFF0E49284607F08DFE20460C49FFF7CA
:10049000B5FF28460B49BDE8384007F083BE00BFD2
:1004A000DC500010EAD60008ADD70008F6D60008E8
:1004B00097D70008FFD6000885D7000806D70008A0
:1004C000B7D8000813D700082DE9F04140F2FF111A
:1004D00005461748174E04F0F5FA1749174809F072
:1004E00015FC0446306030B91549164807F05AFE2D
:1004F0002046BDE8F08105F5974405F184070434F2
:100500000025A84617F8015B3168284609F03EFC33
:10051000B8F1FF0F01D1D92D01D0A742F1D1306838
:1005200009F0A6F90849074807F03CFE0120E0E77A
:1005300028D700083C50001034D7000837D70008EF
:100540004DD70008DC50001069D700087F2810B58F
:1005500006D931B1FF2812D80A4B803833F8100081
:1005600010BD084A32F8024B84428BB203D00131ED
:100570008029F7D10B4603F18000C0B2F0E70020DC
:10058000EEE700BF0AD900087F2870B506D8A0F1B1
:100590006103192B01D8203880B270BD0A4D0C229E
:1005A00000214FF4F774631A01EB530335F813601D
:1005B000864205D02CBF1C461946013AF3D1ECE720
:1005C000024A32F81300E8E70ADA0008E6DD00081C
:1005D00008B5044B53F8200003685B6B9847C0B222
:1005E00008BD00BF9C04001008B5044B53F8200060
:1005F00003681B6B9847C0B208BD00BF9C04001085
:1006000010B5054C54F820000468A46BA0470028DE
:1006100014BF0420002010BD9C04001010B5054C30
:1006200054F820000468E46BA047002814BF04209D
:10063000002010BD9C040010012938B50C46154659
:100640000ED0032918D0D1B90F4B53F82000C0B1F8
:1006500003681B6C9847041E18BF0124204638BD50
:10066000094B53F8200060B103685B6C9847002881
:10067000F4D028600024F1E701231360FAE7042492
:10068000ECE70324EAE700BF9C04001001380A44A9
:10069000914204D011F8013B00F8013FF8E77047A0
:1006A0000244904202D000F8011BFAE7704702466C
:1006B00000F10B01002012F8013B03EBC01303EB28
:1006C00050038A4203F0FF00F5D17047026810B56D
:1006D00052B111460B4611F8014B1F2C0CD93A2C84
:1006E000F8D1511C8B4202D04FF0FF3005E0127858
:1006F000302AF9D101330360002010BD08B568B17C
:1007000003685BB11A784AB1D9888288914205D1D1
:100710005878FFF75DFF10F0010000D0092008BDF8
:100720000269F8B50C4601F10903002A33D041698A
:1007300000254E1E2E2716F8012F202A05F101054F
:1007400019D0052A47D0092D01D103F8017BA2F168
:10075000410CBCF1190F0CD8082D91F80CE08CBF9E
:100760004FF0100C4FF0080C1EEA0C0F1CBF20328B
:10077000D2B203F8012B0B2DDDD1CA7A2272CA69DD
:1007800022604D7E0A7E42EA0522A280CD7D8A7DCE
:1007900042EA0522E28000251D70A669D6B10369F0
:1007A000ABB1E3699BB1028C4FF6FF739A420ED056
:1007B000C76937F8150058B10021FFF7C7FE30B1FF
:1007C000E369013B9D4202D270550135F1E70025F6
:1007D00000237355F8BD092D4FF0E502C9D1B4E7E8
:1007E000CA7E8B7E032843EA022301BF487D0A7D2F
:1007F00042EA002243EA0243184670472DE9F041DD
:10080000C66A00F13008044601234078324641466A
:10081000FFF704FF054690B9236AA2692071F31A15
:1008200093420DD2E778012F0AD9A36960781E445C
:10083000324601234146FFF7F1FE013FF3E7012570
:100840002846BDE8F08103790BB1FFF7D7BF184602
:10085000704738B5C36A8B4205460C4610D0FFF787
:10086000F2FF60B922466878012305F13001FFF7F5
:10087000C7FE00281CBF4FF0FF340120EC6238BDDA
:100880000020FCE7002310B503714FF0FF33C36273
:100890000446FFF7DEFFC0B994F82F2294F82E32F9
:1008A00043EA02234AF65522934210D1D4F8663027
:1008B000084A23F07F43934206D0D4F8820020F008
:1008C0007F40801A18BF012010BD0320FCE70220E2
:1008D000FAE700BF464154002DE9FF4100230360C1
:1008E000074608461546FFF7F1FE061EC0F20E81C8
:1008F0008A4B53F82640002C00F00A813C60237894
:100900006BB16078FFF764FEC10708D41DB110F029
:10091000040500D00A25284604B0BDE8F081002374
:10092000F0B223706070FFF75FFEC20700F1F28043
:100930000DB14307EED400212046FFF7A3FF0128A5
:10094000054640F0CA80E84604F5F77304F22E200D
:1009500041461A7902B19A6841F8042B1033984243
:10096000F7D1002758F8046B002E00F0AE80314616
:100970002046FFF787FF002840F0A88094F83C202D
:1009800094F83B3043EA0223B3F5007F40F0A8809F
:1009900094F8473094F8400094F84610E07051EA1B
:1009A000032100F1FF3308BF616DA161012B00F24B
:1009B000978094F83D50A570002D00F091806B1E3B
:1009C0002B4240F08D8094F8423094F841C04CEABC
:1009D000032C1CF00F0FA4F808C040F0818094F89D
:1009E000442094F8433094F83F7053EA022394F87B
:1009F0003E2008BF236D52EA072271D001FB00FEA2
:100A000002EB1C10704483426AD31B1AAB42B3FB47
:100A1000F5F765D340F6F5739F4265D94FF6F57546
:100A2000AF4294BF02250325BB1C32443044032D42
:100A30006361E6612262A06258D1BCF1000F4FD120
:100A4000E26D62629B0003F2FF13B1EB532F47D3B9
:100A50004FF0FF33C4E90333032D4FF0800363717C
:100A60002AD194F8612094F8603043EA0223012BE4
:100A700022D1711C2046FFF7ECFEE8B994F82F2232
:100A800094F82E32607143EA02234AF655229342CB
:100A900012D1226B224B9A420ED103F1FF53D4F8AC
:100AA000142203F5005320339A4201BFD4F81832C0
:100AB0002361D4F81C32E3601A4A2570138801338D
:100AC0009BB21380E380002525E702200137042F25
:100AD0007FF448AF032803D11DE703281CD008B1D9
:100AE0000D2518E7064649E701259DE7BCF1000FF3
:100AF000F6D07244022D62624FEA43021BBFD21845
:100B000003F00103134603EB52039CE70B2502E7B6
:100B10000C2500E70325FEE60125FCE698020010FF
:100B2000525261419402001070B50446FFF78BFEEB
:100B3000054680BB2378032B25D16379012B22D175
:100B400004F1300601464FF400723046FFF7A8FD6D
:100B50004AF65522A4F82E220F4A226302F1FF52D0
:100B600002F500522032C4F814222269C4F8182277
:100B7000E268C4F81C22E26960780132E262314620
:100B8000FFF74CFD6571002260781146FFF754FDB8
:100B9000003818BF012070BD5252614143690239CB
:100BA000023B8B4283BF8378806A01FB03000020F5
:100BB00070470129F8B506460D465DD943698B4259
:100BC0005AD90378022B29D0032B39D0012B53D1CA
:100BD00001EB5104016A01EB5421FFF73AFE10B119
:100BE0004FF0FF30F8BD671C316AC4F30804344489
:100BF00001EB5721304694F83040FFF72AFE0028D9
:100C0000EED1C7F308003044EB0790F8300044EA17
:100C100000204CBF0009C0F30B00E3E7016A01EBC1
:100C20001521FFF716FE0028DAD1680000F4FF70E6
:100C3000304490F8313090F8300040EA0320D1E79A
:100C4000016A01EBD511FFF704FE0028C8D1AD0001
:100C500005F4FE7505F1300232449378D0781B0418
:100C600043EA0063701990F830001843537840EA63
:100C7000032020F07040B5E70120B3E78268012A25
:100C800070B504460D46C18001D1022070BD0368D5
:100C900059699142F9D9C2B91978032901D1596A20
:100CA00091B91989A942F0D9586AE2600028ECD0BC
:100CB000236800EB1510303305F00F0503EB4515E5
:100CC000206165610020E1E70A469E783601B54261
:100CD000206811460CD3FFF76CFF431C02460AD074
:100CE0000128D2D923685B698342CED9AD1BEEE7D8
:100CF000FFF754FFD9E70120C8E701292DE9F041AA
:100D000005460C4616466FD943698B426CD9037869
:100D1000022B3CD0032B4BD0012B65D101EB5107AB
:100D2000016A01EB5721FFF794FD30BB07F1010881
:100D3000C7F308072F4414F001041FBF97F83030A1
:100D400003F00F02330103F0F00314BF1343F3B2B7
:100D500087F83030296A01232B7101EB582128468E
:100D6000FFF777FD48B9C8F308032B443CB1C6F33D
:100D7000071683F8306001232B71BDE8F08193F8EA
:100D80003010C6F3032621F00F010E43F1E7016A8C
:100D900001EB1421FFF75DFD0028EED1640004F49F
:100DA000FF742C4484F83060361284F83160E2E736
:100DB000016A01EBD411FFF74CFD0028DDD1A4003E
:100DC00004F4FE7404F130032B442C44DA78120648
:100DD00002F070421643321284F830605A70320CBE
:100DE000360E9A70DE70C6E70220C6E7F8B50546F3
:100DF0000F4671B9C668DEB143699E4228BF01261D
:100E000034466B690134A34215D8012E12D8002450
:100E100005E0FFF7CEFE0128044602D80124204653
:100E2000F8BD601C2FD06B69A342F8D83E46E7E7B7
:100E30000126E5E7022421462846FFF7BAFE30B135
:100E4000411C20D00128E9D0B442DAD1DFE76FF0AD
:100E5000704221462846FFF750FF90B957B92B69D9
:100E6000EC605A1CDBD0013B2B616B7943F0010332
:100E70006B71D4E7224639462846FFF73EFF00282B
:100E8000EDD00128CAD14FF0FF34C8E72DE9F8436F
:100E9000C6880136B3B20446894613B90420BDE8BA
:100EA000F8830369002BF9D016F00F0807D1E16829
:100EB00000680133236151B90389B342EED9236835
:100EC000E680303303EB481363610020E7E787785F
:100ED000013F17EA1617F2D1FFF76BFE012805460E
:100EE00001D80220DBE7421C01D10120D7E72068AE
:100EF0004369AB4235D8B9F1000FCFD0E168FFF7B5
:100F000075FF0546002833D00128EAD0431CECD0F9
:100F10002068FFF798FC01460028E6D123684FF4CB
:100F2000007203F13000FFF7BBFB22682946104630
:100F3000FFF734FE4FF00109D06223689A78BA4275
:100F40000CD983F804902068FFF77DFC0028CCD1F1
:100F50002268D36A0133D3620137EEE7DA6AD71B1E
:100F6000DF622068E5602946FFF718FE2061A6E7EA
:100F7000072094E72DE9F04F4FF6FF784FF0FF0A76
:100F800085B00646A0F82080544631693068FFF7E6
:100F900060FC074600285ED175692A78002A7BD05C
:100FA000E52A06D0E97A01F03F03090704D50F2BA3
:100FB00004D0A6F8208054E00F2B57D1F369002B02
:100FC00042D050064BD502F0BF04F28895F80DA030
:100FD00032846A7B524544D1E97EAA7E52EA0122DC
:100FE0003FD12F78DFF8B8B007F03F077A1E0D2702
:100FF000574301221BF8011B681815F8019040782F
:1010000049EA00297AB3FE2F01932AD84846FFF710
:10101000BBFA019B0390791C33F817000291FFF78C
:10102000B3FA039A82421CD10299019B4A460F46A9
:101030001A495945DED12978490603D512B133F84A
:10104000173073B9013CE4B200213046FFF71EFFB0
:101050000746002899D0384605B0BDE8F08FA24277
:10106000B7D0FF24F0E7C145E2D0FAE724B928461B
:10107000FFF71DFB5045EED0B369DF7A17F001078B
:1010800097D105F10B008542E5D015F8011B13F847
:10109000012B9142F7D08CE70427DCE793E20008AC
:1010A00086E200082DE9F74F0B782F2B06460F46F6
:1010B00001D05C2B00D101370024B4603B781F2B9A
:1010C00000F2C88021463046FFF7D8FD746103B0B6
:1010D000BDE8F08F2AF8020FB946CCE0202827445B
:1010E00034BF04240024B9F1000F00F0E38035F888
:1010F0001930202B02D02E2B40F0E08009F1FF396F
:10110000F1E709B144F0030435F819302E2B02D071
:10111000B9F10109F8D14FF000084FF0080A45462F
:101120003BF811004A1CC0B1202803D02E2805D15D
:10113000914507D044F003041146F1E7D04505D2AC
:1011400091454DD1BAF10B0F42D102E0BAF10B0F2C
:1011500039D144F003044FF00B0AB3691A78E52A39
:1011600004BF05221A70BAF1080F04BFAD00EDB23A
:1011700005F00C030C2B03D005F00302032A01D168
:1011800044F00204A10709D405F00305012D08BFAE
:1011900044F01004042B08BF44F00804B369002194
:1011A000DC723046FFF76AFD10B93046FFF7E2FE09
:1011B000B369DB7A002841D0042888D113F0040FEA
:1011C00008BF052083E7914502D044F00304C4D34F
:1011D000AD00EDB24A464FF00B0A4FF00808ABE7FE
:1011E0007F280CD900210192FFF7B0F944F00204E6
:1011F000019A50B13A4B184410F8800C28B1394B81
:1012000013F8011B51B18142FAD144F003045F206D
:10121000B16901F8080008F101088DE7A0F141016A
:10122000192908D9A0F1610119299EBF203845F07C
:10123000010580B2ECE745F00205E9E75A073FF502
:1012400046AF7169CB7ADB0636D533681878FFF77D
:10125000C7FAB0603B782F2B3C4607F10107F9D065
:101260005C2BF7D0D6F81CB0ABF1020504F1FF38C7
:10127000AA464FF0000918F8010F1F2809F10107CD
:101280007FF62CAF2F283FF429AF5C283FF426AF20
:10129000B7F5807F0ED00121FFF758F950B17F28B4
:1012A0003FF618AF104911F8012B002A3FF412AF96
:1012B0008242F8D106200AE7052008E70023202112
:1012C0002BF81930B0690B22FFF7EAF919463BF801
:1012D0001130202B02D02E2B7FF413AF0131F6E713
:1012E00006E20008CBE10008C2E100082DE9F04F5A
:1012F000D0E9066787B00C22054631460DEB0200A7
:10130000FFF7C4F99DF81730DB0763D50023DFF83A
:101310003082F3724FF00109EB610B2203A93046D2
:10132000FFF7B4F9B9F1050F12D9B81E4B4630F8E2
:10133000022F72B1102102F0010404EB4303DC031D
:1013400048BF83EA080301394FEA5202F3D1EEE7BE
:101350004B460DF10B00072203F00F0404F130019E
:10136000392988BF04F137010F2B00F8011902F168
:10137000FF324FEA131138D806AB13447E2103F82D
:10138000141C741E00239A4203D0591C605C202850
:101390002DD13344072A9BBF06A98918202111F8B3
:1013A000141C03F8011BA3EB060198BF01320729A7
:1013B000F0D900212846FFF761FC044620B92846F1
:1013C000FFF7D8FD0446A0B1042C18D19DF81730C2
:1013D000F372EF619DF817309B0740F1A180002662
:1013E00037F816307BB10136FAE70B46B4E70B4607
:1013F000C9E709F10109B9F1640F8ED1072420462C
:1014000007B0BDE8F08F19360D23B6FBF3F60021C7
:101410002846FFF733FC0446002840F08C8007463E
:1014200029692868FFF715FA0446002840F08380F0
:101430006B691B78E52B01D0002B73D10137BE42BD
:1014400071D1013E51D0E9882846891BFFF716FC6F
:1014500004460028D3D1A869FFF729F94FF00F08F7
:1014600007464FF6FF7929692868FFF7F2F9034626
:1014700004460028C3D16A69DFF8C8E0D5F81CC06B
:101480005773F0B2411E0D2482F80B8013739376CC
:10149000D37661439A464B451EF8014B18BF3CF882
:1014A000113013550AF1010A144418BF01314FEAF3
:1014B000232B002B08BF4B46BAF10D0F84F801B067
:1014C000E9D14B4502D03CF811300BB940F0400057
:1014D00010702B6801221A7100212846FFF7D6FCF4
:1014E000044600288BD1013EBDD129692868FFF749
:1014F000B0F90446002882D1686920222146FFF70E
:10150000CFF80B22D5E90501FFF7C0F8D5E905238F
:10151000DB7A03F0180313732B6801221A716EE74C
:10152000012674E7074601212846FFF7AFFC044671
:1015300000283FF475AF042C3FF460AF5FE700BFB5
:101540002110010086E2000870B5018CC5884FF6B5
:10155000FF73994208BF29460446FFF78FFB0146F7
:10156000D8B9E52621692068FFF773F9014688B9E3
:1015700020226069FFF794F863691E7023680122D6
:101580001A71E388AB4208D22046FFF77FFC014680
:101590000028E7D0042908BF0221084670BD0000DA
:1015A0002DE9F047FF2706463C4604254FF6FF7815
:1015B000316900296FD03068FFF74BF905460028E4
:1015C00052D170690378002B68D0E52B51D02E2BB7
:1015D0004FD0C27A02F03F0102F01F02082A48D021
:1015E0000F294BD1590642D503F0BF04F388477B3E
:1015F0003384437BBB423CD1C27E837E43EA0223D9
:101600001AB2B3BB0378F569DFF894C003F03F0367
:10161000013B0D214B434FF0010E1CF8019B00EBE9
:10162000090191F801A010F8091041EA0A21BEF160
:10163000000F20D0FE2B1CD825F813108E46013346
:1016400001320D2AE9D10278520604D5FE2B10D8BA
:10165000002225F81320013CE4B200213046FFF7B8
:1016600015FC05460028A3D0002333610CE0A342FB
:10167000BFD0FF24F1E74145E2D0FAE73CB9FFF7DC
:1016800016F8B84203D100252846BDE8F0874FF68A
:10169000FF733384F8E7002DF5D0E5E70425E3E791
:1016A00086E20008012937B505460C4602D9436990
:1016B0008B4201D802201DE0214628460194FFF705
:1016C00078FA0446A8B10128F4D0411C14D001993D
:1016D00000222846FFF711FB60B92B695A1C05D080
:1016E00001332B616B7943F001036B716B69A3428A
:1016F000E2D8002003B030BD0120FBE71FB5CDE9E3
:10170000001003A814460391FEF7E0FF031E16DB4A
:101710000D4951F823200AB100201070019A0AB136
:1017200000201070019841F8230030B1012C08D13D
:101730000022694601A8FFF7CFF804B010BD0B20C6
:10174000FBE70020F9E700BF980200102DE9F04305
:101750008FB0144601910546002800F091800023C7
:10176000036002F01E0201A905A8FFF7B5F8C0B991
:1017700002AB0B930199454B0C9305A8FFF792FC24
:101780000A9E10B9002E08BF062014F01C0F04F0AA
:101790001F076AD040B1042803D105A8FFF7A6FDB2
:1017A00058B10FB0BDE8F083F37A13F0110F65D193
:1017B000610767D4230739D502E00A9E47F008077E
:1017C00001F04EF90024C0F30743C1B2C0F3072271
:1017D000DDF81480B173000E3374B1753376F47292
:1017E00034777477B477F477F2737074F275707637
:1017F00098F800003146FEF7F3FF0123B476F47643
:101800003475747588F80430044678B10146404652
:10181000D8F82C90FFF746FF0028C2D10598013C6C
:10182000C4604946FFF715F80028BAD1DDF81480E6
:10183000D8F82C303A07C5E907364FF0000448BF06
:1018400047F02007AF71EC7198F800003146FEF7C1
:10185000C7FF2861F369AC61C5E90243B8F80630F7
:10186000C5F80080AB8020469BE7002899D1F37A29
:10187000DA0609D4A007D9D5D907D7D5072090E72C
:1018800009208EE708208CE704208AE79C020010DC
:101890002DE9F74F99460023C9F8003004468846E1
:1018A0001646FEF72BFF054618BBE5790DBBA3795D
:1018B00013F00103009300F09780D4E90232D21AAA
:1018C000964228BF164604F1240B96B1A368C3F3D1
:1018D0000802002A78D120688278013A02EA53226D
:1018E00012F0FF0216D143B9206901280BD8022556
:1018F000E571284603B0BDE8F08F61690192FFF7FA
:1019000058F9019AF1E7411C03D10123009DE371CD
:10191000EFE76061D4F800A0616901925046FFF7DB
:101920003DF90028E3D0019AB6F5007F02EB0007ED
:101930002ED39AF8021002EB562088424FEA562323
:101940009AF8010088BF8B1A3A4641460193FEF788
:1019500057FE0028D9D1A279019B12F0400F0BD07D
:10196000A069C01B984207D24FF40072594608EB99
:101970004020FEF78BFE019B5F02A3683B44A360FF
:10198000D9F800303B44B844C9F80030F61B9CE756
:10199000A269BA4217D0A3795B060BD59AF8010069
:1019A00001235946FEF73AFE0028AED1A37923F071
:1019B0004003A3712068012340783A465946FEF758
:1019C0001FFE0028A1D1A761A168C1F30801C1F5DC
:1019D0000073B34228BF334624311A46214440469F
:1019E0001F46FEF753FEC8E7072582E770B5044699
:1019F000FEF784FE002847D1A37913F0200043D0DE
:101A00005B060DD52146A26951F8240B01234078CD
:101A1000FEF704FE002836D1A37923F04003A3711A
:101A2000E1692068FEF715FF064668BB256AEB7A78
:101A300043F02003EB72E3682B77E3681B126B77AC
:101A4000E389AB77E37BEB772369AB761A121B0C48
:101A50002B751B12EA766B7501F002F80312EB7519
:101A6000030C2B76030EA8756B76AE74EE74A37917
:101A700023F02003A371236801221A712068BDE8B6
:101A80007040FFF751B8012070BD2DE9F74F99461E
:101A90000023C9F80030044688461646FEF72EFE9D
:101AA000054650BBE57945BBA379990740F1B9805C
:101AB000A3680095F34280F0A38004F1240BA3688F
:101AC000002E00F09D80C3F30802002A40F08580BC
:101AD00020688778013F07EA532717F0FF071AD1DC
:101AE0007BB9216929B9FFF781F90146002800F087
:101AF0008780012907D10225E571284603B0BDE89A
:101B0000F08F6169EFE74A1C01D10125F4E72369F1
:101B1000616103B92161A3795B060CD52068A269D4
:101B2000407801235946FEF779FD0028EDD1A379CD
:101B300023F04003A371D4F800A061695046FFF779
:101B40002DF80028D7D0B6F5007F07EB000232D37E
:101B50009AF8021007EB562088424FEA56239AF86B
:101B6000010088BFCB1B4146CDE90023FEF756FD9F
:101B70000028CAD1A169009A019B891A99420CD206
:101B80004FF4007208EB412158460093FEF77EFDAA
:101B9000A279009B22F04002A2715F020123009310
:101BA000A3683B44A360D9F800303B44B844C9F86B
:101BB0000030F61B83E7A36993420DD0D4E90231CC
:101BC000994209D99AF80100019201235946FEF77A
:101BD00017FD019A002898D1A261A068C0F30800FF
:101BE000C0F50077B74228BF374624303A46414611
:101BF0002044FEF74BFDA37943F04003A371CFE7E8
:101C0000D4E90232934288BFE360A37943F0200312
:101C1000A371009B002B3FF470AF2046FFF7E6FE58
:101C20006BE7072569E710B50446FFF7DFFE20B92B
:101C30002046FEF763FD00B9206010BDF7B50446ED
:101C40000D46FEF75BFD0646002873D1E679002EAF
:101C500070D1E368AB4204D2A27912F0020F08BF40
:101C60001D460022A368A260002D2ED1D4E90232C5
:101C7000934281BFE360A37943F02003A37159E04D
:101C80000025A368C3F30803002BEFD0A269AA4282
:101C9000ECD0A3795B0604F124010CD520680191F6
:101CA00040780123FEF7BAFC002848D1A3790199B6
:101CB00023F04003A3712068012340782A46FEF7F1
:101CC0009FFC00283BD1A561D0E7206887787F0280
:101CD0003BB3013B6A1EB3FBF7F1B2FBF7F28A425A
:101CE0001FD37A4213406169A360ED1A0029C7D05F
:101CF000BD4208D9A37920689B0725D5FFF776F860
:101D0000014620BB3D46A3682B44A360C5F30803EE
:101D1000002BB5D02068FEF741FF48B100EB5525F8
:101D2000AFE7216971B9FFF761F80128014604D1D5
:101D30000226E671304603B0F0BD421C01D10126F7
:101D4000F7E720616161D1E7FEF733FF01464A1CE6
:101D5000F5D00129ECD923685B698B42E8D9A368E7
:101D600061613B44A360ED1BC2E7000010B586B083
:101D70000446019100282BD0002201A902A8FEF7F9
:101D8000ABFD80B9029B236003ABA361134B0199A8
:101D9000E3612046FFF786F9E0B9616959B1CB7A72
:101DA000DB0603D40520002323600FE0029B187894
:101DB000FEF716FDA060029BDB88A3800021204671
:101DC000FEF75CFF0428EDD00028ECD106B010BD72
:101DD0000920FBE70428E5D0E5E700BF9C020010DE
:101DE00010B50446FEF78AFC00B9206010BD000063
:101DF0007FB505460E46FEF781FC0446E0B92EB9D4
:101E000001462846FEF73AFF044615E001ABAB61F8
:101E10000C4BEB612846FFF7C3FB04280FD12C6164
:101E200031462846FEF77CFC00212846FFF72EF8B5
:101E30000428E9D100232B61204604B070BD00289E
:101E4000E2D1EDE79C02001030B599B0012201907B
:101E500001A906A8FEF740FD78B903AB0C930199E0
:101E60001E4B0D9306A8FFF71DF930B90B990029F9
:101E700031D0CD7AEA0702D5072019B030BD069BD4
:101E80001878FEF7ADFC0446A0B1EB0612D506A902
:101E90000FA82422FEF7FAFB02210FA81194FEF7E7
:101EA000EDFE0028E9D10FA8FFF77AFB0028E3D068
:101EB0000428E2D106A8FFF747FB0028DDD11CB9B2
:101EC0000698FEF731FED8E706982146FFF7EAFBB1
:101ED0000028D2D1F4E70620CFE700BF9C02001013
:101EE0002DE9F04F93B0059000F0BAFD0122804635
:101EF00005A909A8FEF7F0FC04460546002840F0B5
:101F0000958006AB0F9305995D4B109309A8FFF7D9
:101F1000C9F80446002800F09180042840F086802B
:101F200029460998FEF762FF0546002879D0012D61
:101F300009987FD06B1C7FD0FEF785FC04460028F3
:101F400070D1099F29463846FEF728FE07F1300672
:101F5000214604904FF400723046FEF7A1FB0B229D
:101F600020213046FEF79CFBC8F30743009387F817
:101F70004830EBB2019387F84A30C5F307232E248B
:101F800010225FFA88FAC8F3072B029387F84B30C8
:101F90004FEA1868C5F307434FEA156987F83B20F5
:101FA00087F844302022314607F1500087F830404E
:101FB00087F846A087F847B087F8498087F84590AA
:101FC0000393FEF763FB099987F8514008780B9A51
:101FD000049B032803D1486A904208BF002287F877
:101FE0006A201012120C87F86420121287F86B0016
:101FF00087F865208F781F44BB4221D009985A1C6E
:10200000C3624FF0010303710492FEF7F7FB04462D
:1020100040B901464FF400723046FEF741FB049B85
:10202000EAE7072409982946FFF73CFB204613B04E
:10203000BDE8F08F0224F5E70124F3E70824F5E773
:1020400009A8FFF753F904460028EBD10E9B099825
:1020500083F816A01022DA72009A1A76019A9A76FC
:10206000029ADA76039A83F817B083F819801A7502
:1020700083F8159001230371FEF756FD0446D5E75A
:102080009C02001030B59FB0CDE90010012201A9DB
:102090000CA8FEF721FC002869D10C9B159303AB1B
:1020A00012930199374B13930CA8FEF7FBFF0028FE
:1020B0005DD1119900295CD015220B3106A8FEF7DD
:1020C000E5FA24220CA915A8FEF7E0FA6846FEF707
:1020D000FDFA00284FDB009915A8FEF7E3FF002862
:1020E0004BD0042843D115A8FFF700F900283ED1B2
:1020F0001A9D13220DF11A0105F10D00FEF7C6FA23
:102100009DF818300C9C43F02003EB7201232371DF
:10211000EB7ADB0624D50E9A179B9A4220D02946EB
:102120002078FEF75DFB01462046FEF737FD0146AD
:1021300028B32046FEF78DFBC8B90C9A92F85130AF
:102140002E2B0DD1179B82F86A3019121B0C82F8C6
:1021500064301B1282F86530012382F86B10137112
:102160000CA8FFF7F1F910B90C98FEF7DDFC1FB0D1
:1021700030BD0420FBE70B20F9E70820F7E7022039
:10218000F5E700BF9C0200102DE9F04F89B001294E
:1021900005908946154600F2998205A8FEF796FA41
:1021A0000028C0F29582574B53F82040002C00F0D5
:1021B00091820023C6B223703046FEF715FAC2079B
:1021C00000F18A82430700F1898207AA0121304683
:1021D000FEF732FA18B1012009B0BDE8F08F079B75
:1021E0007F2BF8D9B9F1000F14BF4FF0000A4FF060
:1021F0003F0A6A1EA3EB0A032A42079300D175B96E
:10220000414800224FF4FA61B3FBF1F130F8025B70
:102210008D4201D90132F9E73C4931F81250B5F548
:10222000007F28BF6D0A802D28BF8025012D38BF73
:10223000012540F6F5720195B3FBF5F5954200F2E4
:102240004F8205EB450501356D080335012705F281
:10225000FF1520226D0A03924FF0010B08E0AD003C
:1022600005F2072500226D0A032703924FF0200B89
:102270000BEB0A020292039A05EB0208029A9044C1
:10228000019AA2EB0A024244934201D20E20A3E734
:1022900006AA03213046FEF7CFF920B9069B013B81
:1022A000B3F5004F01D301230693069A0199531EFB
:1022B000032FC2F10002434403EA020308BF029A5B
:1022C000A3EB080304BFD2189B4406930ABF13462E
:1022D000ED180293079A039BD31AA3EB0B03022F6B
:1022E000A3EB0503B3FBF1F3049311D1049940F67A
:1022F000F5739942CAD9B2F5803F2CBF0623042357
:102300000FE000BF98020010AAE2000894E2000863
:10231000032F40F01F81049A4FF6F5739A42B5D906
:102320000C2304F13008B9F1000F40F01C814FF488
:10233000007249464046FEF7B3F9079A84F8F23135
:10234000FE230AEB020184F8F33143F6C163B1FBCB
:10235000F3F18B0843F03F0384F8F4313F2384F812
:10236000F631131284F8FB31130C012084F8FA21A2
:1023700084F8FC31120E4AF6552384F8EF0184F8F4
:10238000F001069184F8F51184F8FD21A4F82E32AD
:1023900084F8F191034684F8F79184F8F89184F871
:1023A000F9914A4641463046FEF738F900287FF455
:1023B00012AF4FF0F8094FF4007200214046FEF7CB
:1023C0006FF9CC490B224046FEF760F90023032F3A
:1023D00084F83B3084F841304FF0020218BF0223EA
:1023E00084F83C2084F84230019A079B84F83D2011
:1023F0000122B3F5803F84F84020C3F30722D9B20D
:1024000021BF84F851201A0C1B0E84F8533084F835
:102410003EB04FF03F034FEA2B2B84F83FB084F8D7
:1024200048304FF0000B4FF0FF0339BF84F84310E2
:1024300084F8442084F8501084F8522084F84A30FC
:1024400084F8459084F849B084F84BB084F84CA0E7
:1024500084F84DB084F84EB084F84FB000F000FB23
:10246000032F0690C0F3072CEAB2C5F307234FEA07
:1024700010417BD184F855302B0C84F856302B0E4C
:1024800084F85730022384F85C30012384F86030EC
:10249000062384F86230802384F8730084F8751072
:1024A000000E84F87030944984F87600292384F86B
:1024B000542084F874C084F85DB084F85EB084F869
:1024C0005FB084F861B084F863B084F8723013228E
:1024D00004F17700FEF7DAF8552384F82E32AA23A8
:1024E00084F82F325246012341463046FEF796F8D3
:1024F00000287FF470AE032F06D101230AF10602F3
:1025000041463046FEF78AF84FF4007200214046FB
:10251000FEF7C6F8032F41D169F0FF03069384F854
:102520003030FF2384F8313084F8323084F833308F
:1025300084F8343084F8353084F8363084F8373015
:1025400084F8383084F8393084F83A300F2384F82E
:102550003B3036E0012F7FF4CEAEB2F5803F2CBF8A
:1025600006230123DDE64FF0F00924E784F8473025
:10257000802384F8570084F85430000E292384F80F
:10258000591084F85A0084F846205C4984F858C0F1
:1025900084F85630132204F15B009BE7584B012F5F
:1025A00018BF6FF0FF0343EA0903FF224FEA1369E4
:1025B000069384F8303084F8312084F8322084F88F
:1025C0003390029B029A414603F1010930460123F0
:1025D000FEF724F8014600287FF4FDAD4FF40072A9
:1025E0004046FEF75DF801230693069B9D4209F1E4
:1025F000010B5DD8019B039A032F18BF134601936B
:1026000009EB03054A460123414630469944FEF74B
:1026100005F800287FF4DFADA945F3D1032F3ED1A3
:10262000522384F8303084F83130612384F832301A
:1026300084F81732049B84F81D02013B412284F880
:10264000332084F81622C3F3072284F8183284F862
:1026500019221A0C1B0E84F81B32022384F81C3238
:10266000552384F82E32AA23722184F82F320123B5
:1026700084F8141284F8151284F81A2284F81E02C1
:102680000AEB030284F81F0241463046FDF7C6FFFD
:1026900001230AF1070241463046FDF7BFFF002241
:1026A00011463046FDF7C8FF003818BF012093E5FA
:1026B00001234A4641463046FDF7B0FF00287FF42B
:1026C0008AAD069B01330693D9468EE7132083E536
:1026D0000B2081E50C207FE503207DE50A207BE5CA
:1026E0004FF6F57295423FF6BAAD02356D000227FE
:1026F000ADE500BFD2E10008DEE10008F2E100082C
:1027000000FFFF0003681B68184703681B69184730
:102710000368DB68184703689B68184700234381F8
:1027200070474089704741817047704738B504460B
:102730000430FFF755FB236805469B692046984700
:10274000284638BD10B54FF49471044606F0D3FB0B
:10275000204610BD30B589B000F1280405464FF47D
:1027600080736946043006940793FFF741FBA8B9CC
:102770009DF80930A3B195F8283063B90DF109032C
:1027800022460DF1150153F8040B42F8040B8B425D
:10279000F9D11B781370204609B030BD0024FAE748
:1027A0001C46F8E7036810B55B680C46984730B1E3
:1027B00001464FF48072204607F070FE012010BDE4
:1027C00070B50446064B44F8043B0D4606460FCD53
:1027D0000FC40FCD0FC42B682360304670BD00BFFF
:1027E000C8E2000803681B69184703689B6918471B
:1027F000002070470069704738B504460430FFF781
:1028000012FA236805461B6A20469847284638BDB9
:1028100010B5034B0360044602F002F8204610BDD9
:1028200000E3000810B50446FFF7F2FF20464FF41E
:102830000A7106F060FB204610BD08B50430FFF7B2
:10284000D5F8003818BF0120404208BD022A10B553
:10285000044607D103691944201DFFF7EFF928B991
:10286000E06810BD012AF7D1C368F4E74FF0FF30EC
:10287000F7E707B5043001ABFFF70AF818B901987C
:1028800003B05DF804FB4FF0FF30F9E707B5043003
:1028900001ABFFF7FAF818B9019803B05DF804FB33
:1028A0004FF0FF30F9E7000084B038B505AD85E89A
:1028B0000E00074B0446294640F8043B4FF40972CA
:1028C00007F0ECFD2046BDE8384004B0704700BF7B
:1028D00000E3000800207047002070470020704788
:1028E00038B50C461146026895681A46A84710B1DB
:1028F0002060002038BD4FF0FF30FBE7036810B5C3
:102900005B690C461146984710B12060002010BD4D
:102910004FF0FF30FBE700F5107108B501221030D1
:10292000FEF7ECFE003818BF0120404208BD0368E6
:1029300010B51B6C04469847024640B904F5107167
:10294000FEF7DCFE003818BF0120404210BD4FF0FA
:10295000FF30FBE710B58AB001A8FFF707FA50B9BE
:102960004FF4947006F0C9FA01A90446FFF728FF56
:1029700020460AB010BD0024FAE708B50846FFF764
:10298000AFFA003818BF0120404208BD08B54FF427
:102990000072002100F51070FFF7F6FB003818BF39
:1029A0000120404208BD08B508461146FFF76AFB02
:1029B000003818BF0120404208BD08B50846FFF79F
:1029C00043FA003818BF0120404208BD30B5ADF2CF
:1029D000AC6D05461446879105F03EF905F5107279
:1029E000879B1E4988A809F06BF9A5075ABF04F018
:1029F00001035A1C0322A00505D561054CBF42F016
:102A0000080242F0100288A998A8FEF79FFE10BBAA
:102A1000230703D59B9998A8FFF710F90DF2844579
:102A20004FF4097298A9284607F038FD4FF40A7050
:102A300006F063FA4FF4067204460DF5926168469B
:102A400007F02CFD95E80E002046FFF72DFF2046ED
:102A50000DF2AC6D30BD0024F9E700BF2CE3000897
:102A600007B5684605F0E8FC684607F02BFBD0E99F
:102A70000232DB0243EA0243426843EA421302683D
:102A800002EBD27243EA620342690069503A43EAB8
:102A90004263013043EA405003B05DF804FB00009C
:102AA00070B504460D4605F0DBF80D4B23600D4B69
:102AB0001E682EB10C48294605F0FAFB204670BD71
:102AC0001C603023A4F84032204605F0C5F8324699
:102AD00004F5107104F11000FEF710FEEEE700BFE0
:102AE00070E300089C04001033E30008094B10B5A4
:102AF0000360094B1A688242044606D1002200F5A1
:102B0000107110461A60FEF7F9FD204605F0B4F882
:102B1000204610BD70E300089C04001030B500236F
:102B2000054D044618468B4205DAE25C82EA400213
:102B30000133A85CF7E730BDB8E3000830B50022E8
:102B4000074D044610468A4209DAA35C83EA102343
:102B5000013235F8133083EA002398B2F3E730BD31
:102B6000B8E4000830B44C680A6803466510E10711
:102B700048BF5B5900EB640048BF9A5830BC10470F
:102B80002DE9FF4704460D460D99039390469DF8A5
:102B90003C60FFF785FF414A226004F5157A04F591
:102BA00011704FF0FF3905F027FB2946039BCDF844
:102BB00000904246504605F09FF904F521731846EF
:102BC0001422002107F092FC04F5267701229DF9DA
:102BD000301005F0B5FB9DF93810384605F02CF99A
:102BE000109BC4F8F43201254FF00123C4E9BE352F
:102BF0002946404604F078FD00220821504605F0A1
:102C0000C5F9AE4213D10221384605F039F9244BFB
:102C1000C4F8DC320023C4F8E032224BC4F8F0627E
:102C2000C4F8D842C4F8EC323246022112E0022E37
:102C300018D13146384605F023F9194AC4F8C04284
:102C40000023C4E9B123C4F8F032164BC4F8D432DF
:102C50002A46294604F52C7004F042FC204604B0B4
:102C6000BDE8F087032E01D12946E3E7042E12D1F7
:102C70002946384605F004F9094BC4F8DC32002334
:102C8000C4F8E032074BC4F8F052C4F8D842C4F894
:102C9000EC322A46C9E7C4F8F092DFE7C0E6000844
:102CA0000F2D0008652B000838B5D0F8F03201333D
:102CB000044615D0D4F8FC3213F0020500F5267056
:102CC0000FD005F0F9F8D4F8F032984208D1D4F8D2
:102CD000FC3223F00203C4F8FC32042384F8F832F7
:102CE00038BD05F0E9F8D4F8F03298421FBFD4F8A7
:102CF000FC3284F8F85243F00303C4F8FC32EFE7E7
:102D000010B50446FFF7D0FFD4F8FC0210BD08B59B
:102D1000FFF7CAFF08BDF8B500F511760446304646
:102D20000F4605F079FA04F51574FF21204605F0E9
:102D300041F910F0FF0504D1304605F09DFAB84284
:102D4000F3DB304605F074FA304605F0A7FA281E8A
:102D500018BF0120F8BD000090F98432013310B58E
:102D6000044604D108490948352205F031FAD4F85F
:102D70009032D4F888221A6004F51570FF21BDE85E
:102D8000104005F017B900BF6CD60008B1D6000896
:102D900038B590F984320133044604D10D490E4808
:102DA000352205F015FAD4F89432D4F888221A6046
:102DB000FF2104F5157005F0FDF84FF4FA71204677
:102DC000FFF7A9FF054610B92046FFF7C5FF2846C3
:102DD00038BD00BF6CD60008B1D6000810B5044657
:102DE000FFF7D6FF20B12046FFF7B6FF002010BD49
:102DF0000120FCE72DE9F04F89B01C46130E00932B
:102E0000C2F307430193A1F1560AC2F307230293C9
:102E1000A1F1690B5FFA8AF307460D4690464FF021
:102E2000030903935FFA8BFB039B012B4BD9BBF187
:102E3000010F48D9009B8DF81930019B8DF81A308D
:102E4000029B8DF81B3097F8F9328DF818508DF8E9
:102E50001C80002B4ED0052106A8FFF75FFE400026
:102E600040F001008DF81D0006AB4FF0000A07F599
:102E7000157613F8011B30460AF1010ACDE9043337
:102E800005F098F8BAF1060F049BF2D14C2D03D14E
:102E9000FF21304605F08EF84FF0090AFF21304639
:102EA00005F088F8030602D5BAF1010AF6D15FFAF7
:102EB00080FABAF1FF0F19D01AF0080F22D0B9F139
:102EC000010913D0B0E700231A4677213846FFF7EF
:102ED00091FF0128824609D83846FFF73DFF384662
:102EE000FFF756FF0028A5D14FF0FF0A504609B062
:102EF000BDE8F08F05F0F703402BACD001238DF82F
:102F00001D30B1E7BAF1010FF0D84D2D07D1002CDB
:102F1000ECD0FF21304605F04DF82060E6E7482D63
:102F200001D07A2DE2D1002CE0D0FF21304605F00F
:102F300041F800062060FF21304605F03BF822688A
:102F400042EA00402060FF21304605F033F8226855
:102F500042EA00202060FF21304605F02BF822686D
:102F60001043DAE730B585B0CDE90221054601937B
:102F7000FFF70EFF60B1DDE9013203992846FFF744
:102F800039FF04462846FFF7E7FE204605B030BD6E
:102F9000FF24FAE72DE9F84300F511790746484682
:102FA0000E46904605F038F907F51575FF212846BD
:102FB00005F000F8C4B2FF2C05D1484605F05CF9D5
:102FC000B0F5FA7FF2DB484605F032F9484605F0E5
:102FD00065F9FE2C41D197F8FA424CB3002210213A
:102FE000284604F0D3FF33469C1C9B1B98454FF6A4
:102FF000FF71284608DD04F0DDFF031204F8023CEF
:1030000004F8010C2346EFE704F0D4FF002284B259
:103010000821284604F0BAFF97F8F932FBB141467F
:103020003046FFF78BFD031B58425841BDE8F8833B
:1030300044454FF0FF01284604DA04F0BBFF305549
:103040000134F5E704F0B6FFFF210446284604F0FA
:10305000B1FF40EA0424A4B2DEE70020E6E7012045
:10306000E4E77FB5D0F8FC32DB0704464CD40325F7
:103070002046FFF78DFE002843D000231A46492141
:103080002046FFF7B7FEE0BB102269462046FFF757
:1030900081FF06462046FFF75FFE86B39DF80010CD
:1030A0009DF807309DF80820891101290BD1BDF842
:1030B00008001B0440BA80B203F47C1318430130AB
:1030C000800204B070BD9DF806009209800242EAB9
:1030D000830300F4406018439DF809309DF80A20EE
:1030E0005B0003F0060343EAD21302330130984039
:1030F0009DF8053003F00F039840400AE1E7013DD9
:10310000B6D12046FFF728FE0020DAE790F8F93222
:103110002DE9F04107460D469046D3B34FF40071B8
:103120002846FFF70BFD06464FF4FA713846FFF7C5
:10313000F2FD60B307F515744146204604F03AFFEE
:1031400097F8FA3243B300221021204604F01EFF04
:10315000002705F1010815F8171018F81730204658
:1031600043EA0121013704F025FFB7F5807FF2D152
:103170003146204604F01EFF00220821204604F0BC
:1031800005FFFF21204604F015FF00F01F00BDE8F9
:10319000F0814FF6FF76C7E76F1E05F2FF1517F8AF
:1031A000011F204604F006FFBD42F8D1311220462F
:1031B00004F000FF3146204604F0FCFEE1E72DE973
:1031C000F8430446894616461D464FF0000820463F
:1031D000FFF7DEFD074628B394F8F832032B14BF3F
:1031E00072023246002352212046FFF703FEC8B97F
:1031F0004FF4007249462046FFF7CCFEB8B908F1FB
:10320000010800231A464C212046FFF7F3FD48B978
:103210002046FFF7A1FD15B93846BDE8F883B8F19F
:10322000030FD4D12046FFF797FD0027F4E7013DB7
:1032300006F1010609F500794FF00008D8D1A8463B
:10324000DFE72DE9F047D0F8FC5215F00105044600
:10325000894690462FD1012B07D9FFF7B0FF80F0A8
:103260000100C5B22846BDE8F0874FEA422A03268E
:103270002046FFF78DFDC8B194F8F8220023032AF9
:103280000CBF4246524651212046FFF7B3FD68B9B4
:103290004FF4007249462046FFF77CFE0746204661
:1032A000FFF75AFD002FDDD1013EE1D12046FFF7A7
:1032B00053FD0125D6E70325D4E72DE9F74F044652
:1032C0008A4690464FEA422B4FF003092046FFF70B
:1032D0005FFD0546D0B194F8F8220023032A0CBF05
:1032E00042465A4658212046FFF784FD064668B9F3
:1032F000FE2251462046FFF709FF07462046FFF70A
:103300002BFD0A2F07D1B9F10109DFD12046FFF7C4
:1033100023FD002510E00C2FF8D094F8FB725FB16C
:1033200001AB32464D212046FFF71CFE0028EDD1AF
:10333000019B002BEAD13D46284603B0BDE8F08F43
:103340002DE9F74F05468B4691461F461C46904691
:103350008A46002695F8F832012B09D12846FFF756
:1033600017FD70B92846FFF7F7FC4FF0000A3FE061
:103370000023224657212846FFF7F4FD0028EDD010
:10338000F0E795F8F832032B18BF4FEA48280023DE
:10339000424659212846FFF72DFD0028E2D1FC22A4
:1033A00051462846FFF7B2FE0528804624D0013654
:1033B0004FF4FA712846FFF7AEFC82460028D1D0C0
:1033C00014BBFD2105F5157004F0F4FD2846FFF748
:1033D000C3FC95F8FB625EB101AB22464D21284645
:1033E000FFF7C0FD0028BDD1019B002BBAD1B2462A
:1033F000504603B0BDE8F08F013C0AF5007A4FF06B
:103400000006CCD12646D3E700231A464C21284695
:10341000FFF7F0FC04460028A4D12846FFF79CFCE7
:10342000B8F10A0F9ED195F8F832012B09D100248A
:10343000032E0BEB442A04EB0908A7EB040489D103
:1034400090E72846FFF7A4FC0028F0D02346224648
:1034500056212846FFF7CEFC48B904220DEB0201A5
:103460002846FFF797FD044608B1019C24BA284678
:10347000FFF772FCDCE738B5D0F8FC5215F0010F0D
:103480000CD16D070CD4012B05D9FFF759FF80F043
:103490000100C0B238BDFFF710FFF8E70320F9E7DD
:1034A0000220F7E7F0B5144F91B0044603252046FB
:1034B000FFF76EFCD8B100233A4646212046FFF7BD
:1034C00099FCA0B9402269462046FFF763FD0646F5
:1034D0002046FFF741FC46B19DF8100000F00F00B8
:1034E000431E5842584111B0F0BD013DDFD1204686
:1034F000FFF732FC0020F6E7F1FFFF802DE9F041F5
:1035000088B0044604A804F077FE2046FFF7CCFB01
:10351000D4F8FC0285074AD4C10748D504F51575CF
:103520008649874FDFF82C82284604F03BFD0326AE
:1035300094F98432013304D135223946404604F0EF
:1035400047FED4F89032D4F888221A600A23FF216B
:103550002846019304F02EFD019B013BF7D11A464A
:10356000402120460193FFF7FDFC0128019B7CD000
:10357000013EDDD10423D4F8FC0284F8F83216E0D1
:103580003146284604F00EFD94F8F832012B5FD145
:1035900000234FF4007250212046FFF7E3FC00287F
:1035A000E8D1D4F8FC0220F00100C4F8FC0208B015
:1035B000BDE8F08103AB00227A212046FFF7D2FC60
:1035C0000128D7D1039BDB02D4D504A804F024FE44
:1035D0005C4F00233A4669212046FFF7C3FC0128CF
:1035E000064605D104A804F047FEB0F5FA6FF0DBFB
:1035F00004A804F01DFE04A804F050FE36B902230E
:1036000084F8F8325049D4F8F43292E004A804F077
:1036100003FE00234FF4801241212046FFF7A2FC55
:103620000128064605D104A804F026FEB0F5FA6F7D
:10363000EFDB04A804F0FCFD04A804F02FFE002E2C
:1036400098D1012384F8F8324049D4F8F43270E07C
:1036500000231A466A212046FFF784FC002889D1FE
:1036600094F8F832032B9CD092E794F8F9223AB1FF
:1036700002467B212046FFF775FC01287FF47AAFD4
:1036800003AB4FF4D57248212046FFF76BFC0128AD
:1036900090D1039BC3F30B03B3F5D57F7FF46AAFDF
:1036A00003AB00227A212046FFF75CFC01287FF45F
:1036B00061AF039BDA027FF55DAF04A804F0ACFDB7
:1036C000204F00233A4669212046FFF74BFC012892
:1036D000064605D104A804F0CFFDB0F5FA6FF0DB83
:1036E00004A804F0A5FD04A804F0D8FD002E7FF482
:1036F00041AF03AB32467A212046FFF733FC002866
:103700007FF438AF039BD4F8F4120F4E13F0804FC0
:1037100014BF03230223B14284F8F8327FF731AF9C
:103720002046FFF7BFFE00283FF42AAFD4F8F4325A
:1037300007498B42D8BF194623E700BF801A06000D
:103740006CD600080000104040787D01002D31014A
:1037500080F0FA02B1D6000810B50446FFF7E7F88A
:10376000D4F8FC3243F00103C4F8FC32042384F89B
:10377000F832002010BD000010B5064B036004466F
:1037800000F5267004F022FB2046FFF7AFF9204633
:1037900010BD00BFC0E6000810B50446FFF7ECFFFF
:1037A00020464FF4407105F0A6FB204610BD0000F6
:1037B00038B590F90030013304460D4604D106496E
:1037C0000648352204F004FD636815B1E268136011
:1037D00038BD2269FBE700BF6CD60008B1D60008EF
:1037E00000F1080373B5044603600D46E1B10846D5
:1037F00008F018FB0F2805EB0006019007D90022FE
:1038000001A9204605F054FC019B2060A3602068BC
:103810003246294605F0B6FC019B22686360002110
:103820002046D15402B070BD014805F07AFB00BFBC
:1038300008E700082DE9F04104460D461646002130
:10384000142206F053FE04F114079DF918102046C7
:1038500004F052FD324629460023384604F0CAFBE4
:1038600004F188030025C4F8803004F1A003C4E902
:103870002635384604F18008C4F8845084F888500E
:1038800084F8A0504FF4E13104F000FC04F19806F4
:103890000849404605F0BFFD0649304605F0BBFD2E
:1038A000204684F8B0500121FFF782FF2046BDE892
:1038B000F08100BF48E700080020022A10B5186018
:1038C000187110D0032A24D0012A0BD10A7820487D
:1038D0009210825C1A700A78120102F03002825C47
:1038E0005A70022010BD0A7819489210825C1A7032
:1038F0000A784C78120102F0300242EA1412825C1B
:103900005A704A78920002F03C02825C9A7003205E
:10391000E8E70A780E489210825C1A700A784C78B0
:10392000120102F0300242EA1412825C5A704A78A4
:103930008C78920002F03C0242EA9412825C9A7007
:103940008A7802F03F02825CDA700420CAE700BF86
:10395000A3EA0008F8B5002500F1140700F1680497
:10396000384604F09BFBAEB2013518B1204604F096
:103970000FFCF5E73046F8BD2DE9F04F2DED028B39
:10398000ABB00546684608EE103A0F46924604F082
:1039900033FC38492846FFF723FF9622002104A86C
:1039A00006F0A4FD684604F037FC002407F1140B70
:1039B000A146A04626466837684604F047FCF8EE64
:1039C000C87A07EE100AB4EEE77AF1EE10FA18D5CD
:1039D000BCB9584604F062FB0028EDD0384604F02C
:1039E000D7FB2AAB3344C0B203F8980CB9F1000FEF
:1039F00023D1A0F10A024C46D2F1000949EB020999
:103A0000DAE7684604F014FC2AAB1E441A491B4846
:103A1000002304AA06F8983C04F0C4FB1CB918491A
:103A200004A808F0F7F904A9284605F0F4FC284694
:103A30002BB0BDEC028BBDE8F08F0136B8F1000F62
:103A400013D12AAB334404A9284603F8988C05F017
:103A5000E2FC42465146284605F08FFD444610F1EF
:103A6000010818BF4FF00108A6E7A0F10A035C4265
:103A70005C41A1E748E7000832E70008DC5000108D
:103A80003EE700082DE9F04387B01F469DF844301B
:103A90009DF83C909DF8408005460C4616461BB1AB
:103AA0001849194804F07EFB2046FFF753FF04F144
:103AB00068003246B9F1000F0DD0124904F072FBD4
:103AC000B8F1000F09D131462846FFF789FE284694
:103AD00007B0BDE8F0830D49F0E7BDF838303A464D
:103AE00004F1800621466846FFF746FF69463046E6
:103AF00005F0A9FB684605F0FDFA3146284605F0B9
:103B0000A9FDE4E739E70008DC50001030E30008C5
:103B10002DE9F041DFF85080114F124E8AB0044673
:103B200004F180054146284605F05BFD98B101216E
:103B30000323CDE902110191009332463B46214611
:103B400004A8FFF79FFF04A9284605F07CFB04A802
:103B500005F0D0FAE4E701200AB0BDE8F08100BF2B
:103B600049E700084CE7000844E70008F0B58BB0CF
:103B7000012405460A27FFF7CBFF2946314B324A7D
:103B8000019404A8CDE902440097FFF77BFF0526C6
:103B900004A805F0AFFA29462C4B2D4A019404A83D
:103BA000CDE902440096FFF76DFF04A805F0A2FAE4
:103BB0002946264B274A04A8CDE90244CDE90064F2
:103BC000FFF760FF04A805F095FA29461F4B224A2B
:103BD00004A8CDE90244CDE90064FFF753FF04A82F
:103BE00005F088FA2946194B1C4A04A8CDE902447D
:103BF000CDE90064FFF746FF04A805F07BFA2946EB
:103C0000124B174A04A8CDE90244CDE90074FFF72E
:103C100039FF04A805F06EFA124B134A294604A88E
:103C2000CDE90244CDE90074FFF72CFF04A805F0AC
:103C300061FA0E490E4804F0B5FA2846FFF78AFEED
:103C40000BB0F0BD55E700085FE7000849E7000842
:103C500073E700087CE7000881E700088BE70008AD
:103C600090E700089AE70008A5E70008AFE700081A
:103C7000DC5000102DE9F04790B0012505260446E0
:103C800001466E4B6E4A01950AA8CDE90255009691
:103C9000FFF7F8FE0AA805F02DFA684B694ADFF82D
:103CA0009C81DFF8D891DFF8D8A121460AA8CDE998
:103CB0000255CDE90065FFF7E5FE0AA805F01AFAFE
:103CC0005E4B614A21460AA8CDE90255CDE900655F
:103CD000FFF7D8FE0AA805F00DFA584B5B4A2146BB
:103CE0000AA8CDE90255CDE90065FFF7CBFE0AA889
:103CF00005F000FA06AB0493002305938DF8183005
:103D00000A27012505234A4604F18006009321462F
:103D100043460AA8CDE902550195FFF7B3FE0AA96B
:103D2000304605F090FA0AA805F0E4F90022514661
:103D3000304605F022FC2B46421931460AA805F010
:103D4000DFFC0AA904A805F07EFA0AA805F0D2F95A
:103D50003F4904A805F045FC00285CD13D493E4898
:103D600004F020FA012555233C4A00932146334BA9
:103D700001950AA8CDE90255FFF784FE0AA805F0CF
:103D8000B9F90A23364A009321462C4B01950AA81B
:103D9000CDE90255FFF776FE0AA9304605F053FA41
:103DA0000AA805F0A7F92F490022304605F0E5FBE7
:103DB0002C4942190746304605F0DFFB2A49804668
:103DC000304605F00EFC88B37B1C2FD0B8F1FF3FC6
:103DD0002CD008F1FF33DB1B3A4631460AA805F028
:103DE0008FFC0AA904F1980005F02DFA0AA805F045
:103DF00081F9D4F898201D49174804F0D3F984F8C4
:103E0000B0502046FFF7A6FD04A805F073F9284638
:103E100010B0BDE8F08716490F4804F0C3F9154803
:103E200004F06AFB013F7FF46CAF9BE712490A483C
:103E3000002504F0B7F984F8B050E5E749E7000839
:103E4000C5E70008E3E7000803E8000822E80008E7
:103E5000CEE900084AE80008DC50001098E80008A5
:103E6000A5E8000859E900083EE70008B2E80008A4
:103E70006AE800080000A040CBE800083EE800081F
:103E800048E80008F8B50446084615460E4607F00F
:103E9000C9FF04F10803236000236360237269688B
:103EA00007460144204605F0F6F93A4631462046D9
:103EB00005F008FB2946204605F0FEFA2046F8BD2D
:103EC0002DE9F04F624E634ADFF8B8B1DFF8B8A1D0
:103ED000A1B001240A2705463346CDE902448846AD
:103EE00001940146009716A8FFF7CCFD16A805F02F
:103EF00001F9CDE9007433462946CDE90244564A1A
:103F000016A8FFF7BFFD16A805F0F4F8CDE9007478
:103F100033462946CDE90244504A16A8FFF7B2FDC0
:103F200016A805F0E7F83346CDE900742946CDE937
:103F300002444B4A16A8FFF7A5FD16A805F0DAF8CB
:103F40005A4616A84749FFF79DFF514616A805F0A7
:103F5000C9FA014604A805F056F916A805F0CAF8F2
:103F6000CDE90074049A33462946CDE9024416A8E7
:103F7000FFF788FD4FF04B0916A805F0BBF83A4B48
:103F80003A4A01942946CDE9024416A8CDF800909A
:103F9000FFF778FD16A805F0ADF85A4616A8344983
:103FA000FFF770FF514616A805F09CFA01460AA8D3
:103FB00005F029F916A805F09DF80A9A3346CDE9CF
:103FC00000742946CDE9024416A8FFF75BFD16A848
:103FD00005F090F8274916A807F01CFF414616A8DF
:103FE00007F0FFFE244916A807F0FBFECDE9007498
:103FF000334616AA2946CDE9024410A8FFF742FD30
:1040000010A805F077F805F180071C4A3346CDE982
:104010000244CDE90094294610A8FFF733FD10A90A
:10402000384605F010F910A805F064F81449384630
:1040300005F0D7FA04460AA805F05CF804A805F0D4
:1040400059F8201E18BF012021B0BDE8F08F00BF35
:1040500049E70008DEE80008EAE8000803E900088C
:1040600027E900083FE900085DE900085BE900086E
:1040700065E900087EE9000878EA00088EE9000892
:104080003EE70008A004001058E900082DE9F043BD
:10409000BBB005460E461746FFF7ECFD0446C8B117
:1040A00040F2FF11304600F00DFD314620A807F028
:1040B000B1FE394620A807F094FE8A4920A805F0F1
:1040C00025FE894B04461860984638B987498848C8
:1040D00004F068F820463BB0BDE8F08305F0C8FB6B
:1040E0000123CDE9023301930A23824A009305F1AB
:1040F0008004814B814F29462DA8FFF7C3FC2DA9D1
:10410000204605F0A0F82DA804F0F4FF7C49002219
:10411000204605F057FA2146421C13230AA805F051
:10412000EFFA042421463B4601220AA8033405F095
:104130008FF9132CF6D10A9A72496D4804F032F8BF
:1041400071490AA805F0E4F931462DA807F062FE8E
:104150000A992DA807F045FE2DA920A800F084FC9F
:1041600060492DA805F0D2FD0A99C8F8000028463C
:10417000FFF7A6FE044638B9D8F8000005F078FB32
:104180000AA804F0B7FFA5E702220021D8F8000032
:1041900005F018FED8F8000005F0B8FE00228700F0
:1041A000032397FBF3F790FBF3F303EB43039842EE
:1041B0001146D8F8000018BF013705F003FE534B35
:1041C00016AA03F1100C914618685968164603C6E2
:1041D000083363453246F7D11B883380162200210D
:1041E0000DF16A0006F082F9494A3B46052106A80E
:1041F00007F032FD06A9484607F0F3FD4549484659
:1042000007F0EFFD0123CDE90233019302234A4673
:1042100000932946404B10A8FFF734FC10A804F087
:1042200069FF002308938DF8243099460DF1160399
:1042300000933A49D8F80000CDF814900DF1150319
:1042400005AA05F0ABFD08AB82B205A92846FFF729
:1042500033FB01263F1A03960DD010A8CDE9019932
:104260002F4BCDF8009008AA2946FFF70BFC10A8A9
:1042700004F040FFDAE70A2308AA2946CDE90176CF
:10428000009310A81C4BFFF7FDFB4B2710A804F070
:1042900031FF2946234B244A019610A8CDE9026636
:1042A0000097FFF7EFFB10A804F024FF2946124BFC
:1042B0001E4A10A8CDE90266CDE90076FFF7E2FBC1
:1042C00010A804F017FF4123009310A8CDE902665F
:1042D000094B174A01962946FFF7D4FB10A804F0B2
:1042E00009FF4DE7EBE900083C500010EEE900083B
:1042F000DC50001010EA000849E7000821EA000835
:1043000048E8000823EA000848D700087BEA0008CC
:1043100032EA000835EA00083CEA000846EA0008EC
:104320004DEA0008D0E9000850EA00085CEA0008FD
:104330006BEA000810B5064B036003F118024C331A
:10434000044642658365543003F010FF204610BDDB
:1043500000EF0008A0F15400ECE7A0F15800E9E7F5
:1043600010B50446983004F0C5FE04F1800004F056
:10437000C1FE04F11400FFF7DDFF204610BD10B5AB
:104380000446FFF7D7FF20466C2104F0B4FD204619
:1043900010BDA0F15400F2E7A0F15800EFE770471C
:1043A00010B50A4C0A49204603F0FCFE0948FCF708
:1043B00037F80948FFF7DAFB0849204603F0F2FE18
:1043C000BDE810400649074803F05EBDDC50001010
:1043D000E4EA0008B80400104C54001001EB000897
:1043E0009F430008F4500010044B054A013813F8AD
:1043F000011B00F8011F9342F9D170479075FF1F10
:104400009C75FF1FF7B52F4C94F90030013304D190
:104410002D492E48352203F0DBFEE36862682C4804
:104420001A604FF4E13103F031FE2A4B2A4DDA686D
:104430002A4F2B4E42F00202DA609A6842F00302E1
:104440009A60FFF7ADFF2448FFF7CEFF0C2415F864
:10445000013B3A46032101A807F0FEFB013C01A9FC
:10446000304605F03FF814F0FF04F0D11D4D1E4C0E
:104470001E4E284603F01CFD2046FBF776FF314612
:104480001B4803F08FFEF0224FF4A0712046FBF78B
:1044900070FF2046FCF718F8164A17491748FFF72F
:1044A000F5FD60B11649124803F07CFE2046FBF78B
:1044B00058FF284603F0F8FC03F0BAFAD9E711498F
:1044C000F1E700BF005500106CD60008B1D6000817
:1044D0008850001000100240145500101AEB00081C
:1044E000A0040010F4500010B80400101FEB0008E6
:1044F000DC50001042D7000828D700084C540010A8
:1045000035EB000848EB0008F0B5454C454D464FEB
:104510008FB0002303220221204603F06BFD2A46C0
:104520004249204604F0E0FC414B0026CDE90363FC
:10453000404B01934FF0FF340F2302940093062267
:10454000052307213846FEF71BFB2A463A49384621
:1045500004F0CAFC0223FF22CDE90432374F712355
:104560007021CDE9023109200A23CDE9003016225D
:10457000132317213846FBF7A3FE2A463049384655
:10458000304F04F0B1FC2C2300932B224FF46143F5
:104590002A213846FFF74EF92A462B49384604F0BF
:1045A000A3FC2A4B2A4F18461422314605F09EFFE1
:1045B000282103F0A1FE0C21384603F03DFC2A46D9
:1045C0002449384604F090FC23482449067200F13F
:1045D0000803C0E900362A4604F086FCCDE90B4406
:1045E000CDE90944CDE90744CDE905441E231F2444
:1045F000CDE903341A4E1C231D27CDE901371B23B7
:10460000009319221A231821304603F045FA154960
:104610002A4630460FB0BDE8F04004F065BC00BF4C
:1046200088500010880100104C51001035430008DC
:1046300040420F0056EB000879370008B80400101C
:10464000610300084C54001061430008005500103D
:10465000F4500010CD7D0008A00400103B9200082B
:10466000405000105D7A000808B572B6962003F03D
:1046700051FF962003F04EFFF8E700BF0F4A30B419
:1046800093689468B4F1006F1A4604D0103030BCBF
:1046900042F8201070470A4A03F5C47553F8044BDA
:1046A00042F8044FAB42F9D14FF08052034B103027
:1046B0009A6030BC42F82010704700BF00ED00E067
:1046C000FCFFFF0F70B50F4C2368DA68910715D413
:1046D000DA68520709D56FF004020B4E1A615D6A61
:1046E0003368EB1AB3F57A7F00D270BD00F082FA1E
:1046F0002368356005F57A759D6370BD03F0EAFEA9
:104700002368E5E7B859001020550010234B30B559
:104710009A6D234C42F008029A659A6D83B002F0BC
:1047200008020192019A9A6B42F008029A639A6B0E
:1047300022F008029A6302F047FC1A4B1A4A1B68DF
:104740001A492160A2FB03239B0C0025013B4FF07B
:10475000FF3220466360E2602561A56002F084F9C3
:1047600032201349FFF78AFF124B4FF480225A6020
:104770002946204602F0D8F82046042102F0D4F859
:1047800023680D495A6A0A6002F57A729A63DA68F8
:10479000284642F00402DA6003B030BD0010024047
:1047A000B85900109001001083DE1B43000C00403C
:1047B000C546000800E100E02055001002F004BCEE
:1047C000036870B51B690021012204469847431C09
:1047D00006460ED0236820461B6900210222984716
:1047E0002368054631461B69204600229847284623
:1047F00070BD70BD4FF0FF30704700BF4FF0FF300D
:10480000704700BF002070474FF0FF30704700BF77
:1048100002480221032202F0F3BF00BF645A0010D5
:10482000084B094A026010B403F58071002453F864
:10483000042F824208BF1C608B42F8D15DF8044B04
:10484000704700BF2055001080EB0008F0B50E4601
:1048500085B03649054607F0D3FA20B9344B1B68BA
:1048600063B105B0F0BD2846324907F0C9FA78B9FE
:104870002F4B1B6843B1012005B0F0BD0190FFF73D
:10488000C7FF019805B0F0BDFFF7C2FF0120E8E7C0
:104890002846294907F0B4FA10B3284B002402E057
:1048A0000134402C21D053F8042F002AF8D12B7862
:1048B0003A2B33D0294602A803F0E8F902A803F006
:1048C0003BFA90B102A803F01DFA88B102A803F0E8
:1048D00023FA03464BB11A4AE01C42F82430C0E7E1
:1048E000134B1B68B3B10220BBE74FF0FF30B8E7B2
:1048F00002A803F0F7F905460028F6D0036802A8DD
:104900009F6803F0EDF926F4803201462846B84747
:104910000346DFE7FFF77CFF0220A2E728460949AC
:1049200002AA07F0EDF9029BD4E700BF5CEB000898
:10493000405800106CEB000864EB00082055001094
:1049400024550010A4EB000802280ADDC31E074A04
:1049500052F82300002142F8231020B103685B685D
:104960001847002070474FF0FF3070472455001063
:10497000022812DC0E4B1B6870B50C4616460BB9AC
:10498000FFF746FFA51936B114F8011B094803F0DB
:1049900039F8AC42F8D1304670BD0338064B53F8B5
:1049A000200010B103681B6818474FF0FF307047B4
:1049B00040580010645A00102455001002280DDCE5
:1049C0000C4B1B6810B50C460BB9FFF721FF0A48CA
:1049D00003F00CF801232070184610BD0338074B74
:1049E00053F8200010B103689B6818474FF0FF335D
:1049F0001846704740580010645A001024550010A3
:104A0000022807DD0338064B53F8200020B1036865
:104A1000DB681847012070474FF0FF30704700BF38
:104A200024550010022807DD0338064B53F82000F8
:104A300020B103681B691847002070474FF0FF3012
:104A4000704700BF24550010022808B504D84FF461
:104A500000534B60002008BD04F084FE092303606E
:104A60004FF0FF3008BD00BF70B5034684B00C4660
:104A70006846194603F00AF9214602A803F006F930
:104A8000684603F02FF9044602A803F02BF984428C
:104A90000DD164B1236868461D6903F021F906460B
:104AA00002A803F01DF9064B9D42024603D14FF0C8
:104AB000FF3004B070BD20463146A84704B070BD39
:104AC000FD47000870B5034682B00E466846194699
:104AD00003F0DCF8684603F005F9044640B10368CA
:104AE00068469D6903F0FCF8064B9D42014603D1E0
:104AF0004FF0FF3002B070BD20463246A84702B0EA
:104B000070BD00BF0948000808B5012004F030FE60
:104B1000704700BF08B5FFF751FEFFF7F9FFBDE88A
:104B20000840FFF76FBC00BF074A13681844EFF353
:104B30000881884202D2106018467047034B0C224D
:104B40001A604FF0FF3070478C010010C85A0010F7
:104B5000074C08B523680546986804F053FF23689E
:104B6000D86804F04FFF05B9FEE7FFF77DFDFBE7CE
:104B7000A4010010002106F05DBF00BF04F094BF47
:104B8000DFF830D0002103E00B4B5B584350043179
:104B90000A480B4B42189A42F6D30A4A02E0002315
:104BA00042F8043B084B9A42F9D302F021FBFBF791
:104BB0000FFB7047008000100CFA000888010010FD
:104BC0007802001078020010CC5A0010FEE70000B6
:104BD000074A08B5136843F480731360032000F09C
:104BE00017F80F20FFF792FD00F094F9002008BDA0
:104BF00000200240024A136801331360704700BF6F
:104C000024560010014B1868704700BF245600104E
:104C1000074AD1684FF6FF030B4043F0BF6300F033
:104C2000070043F4003343EA0023D360704700BF1A
:104C300000ED00E02DE9F04F0F6885B0002F00F087
:104C4000EB804FF0000EDFF828B2019174468BE044
:104C50004FEA440C0323D0F8009003FA0CF3DB4333
:104C600005F0030803EA0901013E08FA0CF941EADC
:104C70000909012EC0F8009040F2A980B8F1030F95
:104C800000F0BE80019AC6689268334002FA0CF2C6
:104C90001A43EE00C26062D56E4B6E4A1B6E43F043
:104CA00001031366126E24F0030303F1804302F044
:104CB000010203F58033039204F00302039ED3F84C
:104CC00008E092000F269640B0F1904F2EEA0606BB
:104CD00000F0A5806049884200F0A3805F498842C7
:104CE00000F0A3805E49884200F0A4805D498842BC
:104CF00000F0A5805C49884200F0A6805B498842AC
:104D00000CBF4FF0060E4FF0070E0EFA02F23243C0
:104D10009A60DBF800206FEA0A06E90354BF3240CC
:104D20004AEA0202CBF80020DBF80420AB0354BFB0
:104D300032404AEA0202CBF80420DBF80820E902FC
:104D400054BF32404AEA0202CBF80820DBF80C30AC
:104D5000AA0254BF33404AEA0303CBF80C300134B3
:104D600037FA04F3A64657D0012303FA0EF212EAEB
:104D7000070AF4D0019B5D6825F01006022E7FF42F
:104D800067AF4FEAD40C00EB8C0C04F00706DCF89C
:104D90002030B6004FF00F0808FA06F823EA08089A
:104DA000019B1B69B34048EA0303CCF820304FEA6B
:104DB000440C0323066803FA0CF3DB4305F00308F5
:104DC00003EA060908FA0CF649EA06060660866850
:104DD000019903EA0609CE6806FA0CF649EA0606C6
:104DE0008660D0F80490C5F3001629EA020906FA95
:104DF0000EF649EA0606B8F1030F46607FF442AFAB
:104E0000D0F82C80C5F3C00628EA020806FA0EF690
:104E100048EA0602C26235E705B0BDE8F08F00221D
:104E200075E7012101FA02F271E74FF0020E0EFA66
:104E300002F26CE74FF0030E0EFA02F267E74FF052
:104E4000040E0EFA02F262E74FF0050E0EFA02F2BD
:104E50005DE700BF00100240000400480008004861
:104E6000000C0048001000480014004800180048DA
:104E700000040140704700BF002849D0F8B590F801
:104E80003530044603F0FF02002B38D02368A068B9
:104E9000022284F835201968626821F0010122F0AD
:104EA000706219601A619A6822F400429A60E2689E
:104EB00020B1012A28D040F404409860022A04BF9F
:104EC0004FF400625A60596867692269256AA669C9
:104ED000E0693A4341F0007142EA0622284341F476
:104EE00000415960DA6018601A68002142F001023E
:104EF00001251A600846A16384F83550F8BD80F892
:104F00003420FFF7B7FFC1E740F400409860DAE7CC
:104F100001207047704700BF024A136843F4807352
:104F200013607047007000400D4B10B55B690C4674
:104F300060B99A050FD40B4A1369012C23F00403BE
:104F400013610BD040BF20BF20BF10BD9B05F2D422
:104F500000F012F8EFE700F017F8ECE730BF10BDF3
:104F60000070004000ED00E0024B186800F4C060E3
:104F7000704700BF00700040024A136843F480434A
:104F800013607047007000400E490F4B08680F4ACD
:104F900020F4804008601B68A2FB03239A0C322394
:104FA00003FB02F313B904E0013B02D04A69920506
:104FB000FAD4044B5B6913F4007F14BF0320002074
:104FC000704700BF007000409001001083DE1B435B
:104FD00030B5204DAB6DDB0083B004461AD5FFF72A
:104FE000C3FFB0F5007F27D0802C2CD82FD0A4F1A0
:104FF0007002B2FA82F2520917490B6823F00703D4
:1050000013430B60086800F00700101A18BF012056
:1050100003B030BDAB6D43F08053AB65AB6D03F0B7
:1050200080530193019BFFF79FFFAB6DB0F5007FAD
:1050300023F08053AB65D7D1802C06D9A02C8CBF30
:1050400002220122D8E70322D6E70022D4E7022277
:10505000D2E700BF00100240002002402DE9F043DB
:105060000368DD0683B004463FD5C14B9A6812F051
:105070000C0F40F06F81022292FAA2F11B6892FAA3
:10508000A2F2B2FA82F202F01F02D340D80703D58F
:10509000A369002B00F0F381B54B206A1A68110751
:1050A00000F13382D3F8943003F470631B09834218
:1050B00080F03182FFF78CFF002840F0E081AC4B9C
:1050C0001A6842F008021A601968226A21F0F00199
:1050D0000A431A605A68E16922F47F4242EA0122D7
:1050E0005A600F20FFF712FB2368DE075ED5A04948
:1050F0008A6802F00C02082A00F0AC818A6802F08B
:105100000C020C2A00F0A081994D2B6823F4803307
:105110002B602B6823F480232B60FFF773FD4FF483
:105120000037064605E0FFF76DFD801BC82800F23A
:10513000498197FAA7F38E492A6897FAA7F3B3FA39
:1051400083F303F01F0322FA03F3D807EBD4636859
:10515000B3F5803F00F08E82B3F5A02F00F082827D
:105160000A6822F480320A600A6822F480220A6007
:10517000002B40F083820D46FFF744FD4FF40037CB
:10518000064605E0FFF73EFD801BC82800F21A81A5
:1051900097FAA7F32A6897FAA7F3B3FA83F303F011
:1051A0001F0322FA03F3DB07ECD42368980700F10E
:1051B0009380180728D563696D4E002B00F081811C
:1051C000D6F8943043F00103C6F89430FFF71AFD87
:1051D0000225074605E0FFF715FDC01B642800F215
:1051E000F18095FAA5F395FAA5F395FAA5F3D6F80B
:1051F000942095FAA5F3B3FA83F303F01F0322FA80
:1052000003F3D907E7D523685B0740F1E780584BE4
:105210009A6DD70000F1DD819A6D42F080529A6557
:105220009B6D03F080530193019B4FF00108514D9A
:105230002B68DE0510D42B6843F480732B60FFF7D6
:10524000E1FC064605E0FFF7DDFC801B642800F268
:10525000B9802B68D805F6D5454DD5F8903023F0A8
:105260000103C5F89030D5F8903023F00403C5F859
:105270009030FFF7C7FC4FF00209074641F288362D
:105280001CE099FAA9F3B3FA83F343F040035B09F6
:10529000032B0CBFD5F89420EA6999FAA9F3B3FA65
:1052A00083F303F01F0322FA03F3D90740F194813B
:1052B000FFF7A8FCC01BB04200F2848099FAA9F362
:1052C00099FAA9F3B3FA83F343F040035B09022B85
:1052D000D7D1D5F89020E0E725498A6802F00C0282
:1052E000042A00F035818A6802F00C020C2A00F0D2
:1052F0002981E3681E4D002B00F04C812B6843F49C
:1053000080732B60FFF77EFC4FF48067064604E055
:10531000FFF778FC801B642854D897FAA7F3144948
:105320002A6897FAA7F3B3FA83F303F01F0322FA6C
:1053300003F3DA07ECD54A684FF0F85090FAA0F082
:105340002369B0FA80F022F0F852834013434B6097
:1053500023682EE78269002A00F095801A6842F0DF
:1053600001021A601D46FFF74DFC0227064608E0C1
:105370000010024000700040FFF744FC801B6428CE
:1053800020D897FAA7F3C1492A6897FAA7F3B3FA86
:1053900083F303F01F0322FA03F3DA07ECD50B685B
:1053A00043F008030B600A68236A22F0F0021343FB
:1053B0000B604B68E26923F47F4343EA02234B60AE
:1053C000236892E6032003B0BDE8F083B8F1000F34
:1053D00004D0AE4A936D23F080539365626A7AB32A
:1053E000AA4B996801F00C010C2948D0022A1A68CE
:1053F00022F080721A6000F09A81DA6822F00302CB
:10540000DA60DA6822F0887222F48032DA601C46B0
:10541000FFF7F8FB4FF00075064604E0FFF7F2FBDC
:10542000801B6428CED895FAA5F3226895FAA5F3D7
:10543000B3FA83F303F01F0322FA03F3DB07EDD47F
:10544000002003B0BDE8F083CA6802F00302032A1B
:105450007FF45AAE4FF4003292FAA2F18B490968F8
:1054600092FAA2F2B2FA82F202F01F0221FA02F2DA
:10547000D5077FF59BAE6268002A7FF497AE0120C6
:1054800003B0BDE8F0831A6822F001021A601D46DD
:10549000FFF7B8FB0227064604E0FFF7B3FB801BCB
:1054A00064288FD897FAA7F32A6897FAA7F3B3FA74
:1054B00083F303F01F0322FA03F3DB07EDD4236821
:1054C00013E6D6F8943023F00103C6F89430FFF7C2
:1054D00099FB0225074605E0FFF794FBC01B6428F3
:1054E0003FF670AF95FAA5F395FAA5F395FAA5F3F3
:1054F000D6F8942095FAA5F3B3FA83F303F01F03CB
:1055000022FA03F3DA07E7D47DE61B6803F0F00321
:105510008342FFF4CFAD5D4B1A6842F008021A6077
:105520001A6822F0F00202431A605A68E16922F414
:105530007F4242EA01225A60FFF74AFD00283FF409
:10554000D0AD9CE7CA6802F00302022A7FF4D1AE14
:105550004FF4806292FAA2F14C49096892FAA2F2E1
:10556000B2FA82F202F01F0221FA02F2D10702D54A
:10557000E268002A83D0454D4FF0F850696890FAF0
:10558000A0F02269B0FA80F021F0F85182400A437D
:105590006A600EE62B6823F480732B60FFF732FB02
:1055A0004FF48067064605E0FFF72CFB801B64285C
:1055B0003FF608AF97FAA7F32A6897FAA7F3B3FA6A
:1055C00083F303F01F0322FA03F3DB07ECD4236811
:1055D000EFE54FF000082AE6A368012B6CD0002B02
:1055E00040F0FA80294DD5F8903023F00103C5F83A
:1055F0009030D5F8903023F00403C5F89030FFF7D1
:1056000001FB4FF00209074641F288361CE099FA87
:10561000A9F3B3FA83F343F040035B09032B0CBFF8
:10562000D5F89420EA6999FAA9F3B3FA83F303F061
:105630001F0322FA03F3DB077FF5C8AEFFF7E2FA98
:10564000C01BB0423FF6BEAE99FAA9F399FAA9F38E
:10565000B3FA83F343F040035B09022BD7D1D5F8AB
:105660009020E0E70B6823F480330B600B6843F471
:1056700080230B600B6843F480330B60FFF7C2FAA2
:105680004FF400370646014D08E000BF001002400D
:10569000FFF7B8FA801BC8283FF694AE97FAA7F335
:1056A0002A6897FAA7F3B3FA83F303F01F0322FAE9
:1056B00003F3DA07ECD578E5554AD2F8903043F099
:1056C0000103C2F89030FFF79DFA4FF00209074638
:1056D0004F4D41F288361CE099FAA9F3B3FA83F3EF
:1056E00043F040035B09032B0CBFD5F89420EA6913
:1056F00099FAA9F3B3FA83F303F01F0322FA03F331
:10570000DA073FF563AEFFF77DFAC01BB0423FF604
:1057100059AE99FAA9F399FAA9F3B3FA83F343F0CE
:1057200040035B09022BD7D1D5F89020E0E71D4656
:10573000FFF768FA4FF00077064605E0FFF762FAD8
:10574000801B64283FF63EAE97FAA7F330492A68DB
:1057500097FAA7F3B3FA83F303F01F0322FA03F3D4
:10576000D807EBD404F12803C8CB656BA06BE26BC0
:1057700043EA0723741E43EA041340082C0943EA52
:1057800044430138520843EA4053013A43EA426332
:10579000CB600B6843F080730B60CB6843F0807381
:1057A000CB600C46FFF72EFA4FF00075064605E079
:1057B000FFF728FA801B64283FF604AE95FAA5F39C
:1057C000226895FAA5F3B3FA83F303F01F0322FAD4
:1057D00003F3DA07ECD533E6052B0D4BD3F8902015
:1057E00022F00102C3F89020D3F8902004D022F0D8
:1057F0000402C3F8902066E742F00402C3F8902048
:10580000D3F8902042F00102C3F890205BE700BF7C
:1058100000100240934A136803F007038B422DE9FE
:10582000F0410C4605460FD213688E4A04299CBFEE
:1058300023F007030B431360136803F007038B4245
:1058400068D00120BDE8F08103689E0706D5864830
:10585000AA68816821F0F0010A438260D80734D534
:105860006B68022B00F09E80002B40F09E8002228D
:1058700092FAA2F17C49096892FAA2F2B2FA82F293
:1058800002F01F0221FA02F2D107DAD5764EB26891
:1058900022F003021343B360FFF7B4F96B68022BE5
:1058A000074600F0BC80032B00F0C780002B40F0BF
:1058B000A58041F2873804E0FFF7A4F9C01B4045FA
:1058C00067D8B36813F00C0FF6D1042C64D9654B7C
:1058D0001B68644A1360136803F00703A342B0D146
:1058E0002B685A0706D56048EA68816821F4E061B0
:1058F0000A4382601B0707D55B4A2969936823F432
:10590000605343EAC10393600F20FEF7FFFE0020BF
:10591000BDE8F0810368990706D55348AA688168F5
:1059200021F0F0010A438260DA07DAD56B68022BB6
:1059300000F09180032B6FD0002B40F08F8002226B
:1059400092FAA2F14849096892FAA2F2B2FA82F2F6
:1059500002F01F0221FA02F2D7077FF572AF424C24
:10596000A26822F003021343A360FFF74BF96B68B0
:10597000022B064641F288371ED0032B32D033BBB0
:10598000A36813F00C0FABD0FFF73CF9801BB842B3
:10599000F6D90320BDE8F081324B1B6823F00703E2
:1059A000234396E74FF4003262E7032B0CBF4FF01E
:1059B00000724FF480625BE7A36803F00C03082BCE
:1059C0008ED0FFF71FF9801BB842F5D9E1E7A36835
:1059D00003F00C03042B83D0FFF714F9801BB842AB
:1059E000F5D9D6E7A36803F00C030C2B3FF478AF8E
:1059F000FFF708F9801BB842F4D9CAE741F28838AA
:105A000004E0FFF7FFF8C01B4045C2D8B36803F0BD
:105A10000C03042BF5D158E74FF0007290E741F2E8
:105A2000883804E0FFF7EEF8C01B4045B1D8B368F2
:105A300003F00C03082BF5D147E741F2883804E066
:105A4000FFF7E0F8C01B4045A3D8B36803F00C0390
:105A50000C2BF5D139E74FF4003271E74FF4806237
:105A60006EE700BF0020024000100240394A9368F0
:105A700003F00C03042B4ED0936803F00C03082BA7
:105A80004CD0936813F00C0F1CD1324B32491A687A
:105A9000120754BFD3F894301B682E4A54BFC3F387
:105AA0000323C3F30313926851F8233012F00C0F51
:105AB0000CBF1846002027498A6802F00C020C2A05
:105AC0000DD07047936803F00C030C2B32D02149A2
:105AD0008A6802F00C0200200C2A0346F1D1CA6841
